:100000000C942A000C9447000C9447000C94410176
:100010000C9447000C9447000C9447000C94470044
:100020000C9447000C9447000C9447000C94470034
:100030000C9447000C9447000C9447000C94470024
:100040000C9447000C9447000C9447000C94470014
:100050000C94470011241FBECFE5D8E0DEBFCDBF12
:1000600010E0A0E6B0E0E6E5F3E002C005900D92F6
:10007000A836B107D9F720E0A8E6B0E001C01D928C
:10008000A936B207E1F70E9465010C94A9010C940E
:10009000000080E487B986E886B90895877097B133
:1000A000987F97B997B1892B87B986B1806486B953
:1000B0003699FECF84B195B1089589E683BF08953E
:1000C000613029F4E82FF0E08FEF81830895E82F65
:1000D000F0E011820895413069F4E82FF0E02181C9
:1000E00081E090E002C0880F991F6A95E2F7822BA9
:1000F00081830895E82FF0E0218181E090E002C043
:10010000880F991F6A95E2F780958223818308956D
:10011000E82FF0E0828121E030E002C0220F331F9F
:100120006A95E2F7282B22830895E82FF0E0828178
:1001300021E030E002C0220F331F6A95E2F72095DC
:10014000282322830895E82FF0E062830895CF9357
:10015000C82F60E083E30E9495006C2F80E30E942B
:10016000A30061E083E30E94880082E08A95F1F7B2
:1001700000C061E083E30E94950087EC90E0019766
:10018000F1F700C00000CF91089561E080E30E9484
:10019000600041E060E083E30E946B0041E061E0C9
:1001A00083E30E946B0060E080E30E94A30061E0B3
:1001B00083E30E9495008FE99FE00197F1F700C06B
:1001C000000088E30E94A7008EE00E94A70081E063
:1001D0000E94A7008FE99FE00197F1F700C000009F
:1001E00086E00E94A7000895CF93C82F60E083E3C4
:1001F0000E9488006C2F80E30E94A30061E083E3EB
:100200000E94880082E08A95F1F700C061E083E3F4
:100210000E94950087EC90E00197F1F700C0000084
:10022000CF9108950F931F93CF938C01C0E003C02B
:100230000E94F400CF5FF801EC0FF11D8081811165
:10024000F7CFCF911F910F910895CF93DF93EA01DC
:10025000811108C0603130F4862F8F7080680E9451
:10026000A70009C0813039F4603128F4862F8F70DF
:10027000806C0E94A700CE010E941201DF91CF91F5
:1002800008951F920F920FB60F9211242F938F9300
:100290009F9398B380EC892788BB81E09091680098
:1002A000911180E0809368002FE788E391E021506E
:1002B00080409040E1F700C000009F918F912F9106
:1002C0000F900FBE0F901F9018950E94C5000E94BE
:1002D00049000E945D008AB31ABA87B317BA87B380
:1002E000886087BB87B3806487BB87B3806887BB20
:1002F0008BB780628BBF84B7806484BF789488B3E7
:10030000806488BB109268008091680081110CC0E5
:1003100040E650E060E00E9425018FE097E20197FF
:10032000F1F700C000000CC044E650E060E080E05F
:100330000E9425018FE097E20197F1F700C00000CD
:1003400080E00E944E0096958795969587958CBF84
:06035000DBCFF894FFCFA3
:080356002B7665002D76650091
:00000001FF
